{
  "contractName": "Counter",
  "abi": [
    {
      "constant": true,
      "inputs": [],
      "name": "value",
      "outputs": [
        {
          "name": "",
          "type": "uint256"
        }
      ],
      "payable": false,
      "stateMutability": "view",
      "type": "function"
    },
    {
      "anonymous": false,
      "inputs": [
        {
          "indexed": true,
          "name": "newValue",
          "type": "uint256"
        }
      ],
      "name": "Increased",
      "type": "event"
    },
    {
      "constant": false,
      "inputs": [],
      "name": "increase",
      "outputs": [],
      "payable": false,
      "stateMutability": "nonpayable",
      "type": "function"
    }
  ],
  "bytecode": "0x608060405234801561001057600080fd5b5061016a806100206000396000f3fe608060405234801561001057600080fd5b50600436106100365760003560e01c80633fa4f2451461003b578063e8927fbc14610059575b600080fd5b610043610063565b6040518082815260200191505060405180910390f35b610061610069565b005b60005481565b61007f60016000546100b690919063ffffffff16565b6000819055506000547f3496c3ede4ec3ab3686712aa1c238593ea6a42df83f98a5ec7df9834cfa577c560405160405180910390a2565b600080828401905083811015610134576040517f08c379a000000000000000000000000000000000000000000000000000000000815260040180806020018281038252601b8152602001807f536166654d6174683a206164646974696f6e206f766572666c6f77000000000081525060200191505060405180910390fd5b809150509291505056fea165627a7a723058200cec309e7bdbd01b80fbb6c003fb1aa3a33b3982823c5ac7c0af03385838886d0029",
  "source": "pragma solidity ^0.5.0;\n\nimport \"@openzeppelin/contracts/math/SafeMath.sol\";\n\ncontract Counter {\n    using SafeMath for uint;\n    uint256 public value;\n\n    event Increased(uint256 indexed newValue);\n\n    function increase() public {\n        value = value.add(1);\n        emit Increased(value);\n    }\n}",
  "sourcePath": "/Users/justsomeguy/Desktop/sample-code/counter-dapp/src/contracts/Counter.sol",
  "compiler": {
    "name": "solc",
    "version": "0.5.8+commit.23d335f2.Emscripten.clang"
  },
  "schemaVersion": "3.0.16",
  "updatedAt": "2019-11-24T23:06:56.560Z",
  "devdoc": {
    "methods": {}
  },
  "userdoc": {
    "methods": {}
  }
}